{"abi":[{"type":"constructor","inputs":[{"name":"token_","type":"address","internalType":"address"},{"name":"merkleRoot_","type":"bytes32","internalType":"bytes32"},{"name":"endTime_","type":"uint256","internalType":"uint256"}],"stateMutability":"nonpayable"},{"type":"function","name":"claim","inputs":[{"name":"index","type":"uint256","internalType":"uint256"},{"name":"account","type":"address","internalType":"address"},{"name":"amount","type":"uint256","internalType":"uint256"},{"name":"merkleProof","type":"bytes32[]","internalType":"bytes32[]"}],"outputs":[],"stateMutability":"nonpayable"},{"type":"function","name":"endTime","inputs":[],"outputs":[{"name":"","type":"uint256","internalType":"uint256"}],"stateMutability":"view"},{"type":"function","name":"isClaimed","inputs":[{"name":"index","type":"uint256","internalType":"uint256"}],"outputs":[{"name":"","type":"bool","internalType":"bool"}],"stateMutability":"view"},{"type":"function","name":"merkleRoot","inputs":[],"outputs":[{"name":"","type":"bytes32","internalType":"bytes32"}],"stateMutability":"view"},{"type":"function","name":"owner","inputs":[],"outputs":[{"name":"","type":"address","internalType":"address"}],"stateMutability":"view"},{"type":"function","name":"renounceOwnership","inputs":[],"outputs":[],"stateMutability":"nonpayable"},{"type":"function","name":"token","inputs":[],"outputs":[{"name":"","type":"address","internalType":"address"}],"stateMutability":"view"},{"type":"function","name":"transferOwnership","inputs":[{"name":"newOwner","type":"address","internalType":"address"}],"outputs":[],"stateMutability":"nonpayable"},{"type":"function","name":"withdraw","inputs":[],"outputs":[],"stateMutability":"nonpayable"},{"type":"event","name":"Claimed","inputs":[{"name":"index","type":"uint256","indexed":false,"internalType":"uint256"},{"name":"account","type":"address","indexed":false,"internalType":"address"},{"name":"amount","type":"uint256","indexed":false,"internalType":"uint256"}],"anonymous":false},{"type":"event","name":"OwnershipTransferred","inputs":[{"name":"previousOwner","type":"address","indexed":true,"internalType":"address"},{"name":"newOwner","type":"address","indexed":true,"internalType":"address"}],"anonymous":false},{"type":"error","name":"AlreadyClaimed","inputs":[]},{"type":"error","name":"ClaimWindowFinished","inputs":[]},{"type":"error","name":"EndTimeInPast","inputs":[]},{"type":"error","name":"InvalidProof","inputs":[]},{"type":"error","name":"NoWithdrawDuringClaim","inputs":[]}],"bytecode":{"object":"0x60e060405234801561001057600080fd5b50604051610d19380380610d1983398101604081905261002f916100c7565b6001600160a01b03831660805260a082905261004a33610075565b42811161006a576040516372e54d4d60e01b815260040160405180910390fd5b60c0525061010a9050565b600180546001600160a01b038381166001600160a01b0319831681179093556040519116919082907f8be0079c531659141344cd1fd0a4f28419497f9722a3daafe3b4186f6b6457e090600090a35050565b6000806000606084860312156100dc57600080fd5b83516001600160a01b03811681146100f357600080fd5b602085015160409095015190969495509392505050565b60805160a05160c051610bb86101616000396000818160ec015281816101a201526101ff01526000818160b2015261047701526000818161017e01528181610261015281816102d601526104d50152610bb86000f3fe608060405234801561001057600080fd5b50600436106100935760003560e01c8063715018a611610066578063715018a6146101165780638da5cb5b1461011e5780639e34070f14610143578063f2fde38b14610166578063fc0c546a1461017957600080fd5b80632e7ba6ef146100985780632eb4a7ab146100ad5780633197cbb6146100e75780633ccfd60b1461010e575b600080fd5b6100ab6100a636600461098e565b6101a0565b005b6100d47f000000000000000000000000000000000000000000000000000000000000000081565b6040519081526020015b60405180910390f35b6100d47f000000000000000000000000000000000000000000000000000000000000000081565b6100ab6101f5565b6100ab6102ff565b6001546001600160a01b03165b6040516001600160a01b0390911681526020016100de565b610156610151366004610a25565b610311565b60405190151581526020016100de565b6100ab610174366004610a3e565b610352565b61012b7f000000000000000000000000000000000000000000000000000000000000000081565b7f00000000000000000000000000000000000000000000000000000000000000004211156101e15760405163d365f61160e01b815260040160405180910390fd5b6101ee85858585856103d0565b5050505050565b6101fd61054d565b7f000000000000000000000000000000000000000000000000000000000000000042101561023e57604051630ee56a2b60e41b815260040160405180910390fd5b6040516370a0823160e01b81523060048201526102fd9033906001600160a01b037f000000000000000000000000000000000000000000000000000000000000000016906370a0823190602401602060405180830381865afa1580156102a8573d6000803e3d6000fd5b505050506040513d601f19601f820116820180604052508101906102cc9190610a59565b6001600160a01b037f00000000000000000000000000000000000000000000000000000000000000001691906105a7565b565b61030761054d565b6102fd60006105fe565b60008061032061010084610a88565b9050600061033061010085610a9c565b60009283526020839052604090922054600190921b9182169091149392505050565b61035a61054d565b6001600160a01b0381166103c45760405162461bcd60e51b815260206004820152602660248201527f4f776e61626c653a206e6577206f776e657220697320746865207a65726f206160448201526564647265737360d01b60648201526084015b60405180910390fd5b6103cd816105fe565b50565b6103d985610311565b156103f757604051630c8d9eab60e31b815260040160405180910390fd5b60408051602081018790526bffffffffffffffffffffffff19606087901b1691810191909152605481018490526000906074016040516020818303038152906040528051906020012090506104a28383808060200260200160405190810160405280939291908181526020018383602002808284376000920191909152507f000000000000000000000000000000000000000000000000000000000000000092508591506106509050565b6104bf576040516309bde33960e01b815260040160405180910390fd5b6104c886610668565b6104fc6001600160a01b037f00000000000000000000000000000000000000000000000000000000000000001686866105a7565b604080518781526001600160a01b03871660208201529081018590527f4ec90e965519d92681267467f775ada5bd214aa92c0dc93d90a5e880ce9ed0269060600160405180910390a1505050505050565b6001546001600160a01b031633146102fd5760405162461bcd60e51b815260206004820181905260248201527f4f776e61626c653a2063616c6c6572206973206e6f7420746865206f776e657260448201526064016103bb565b604080516001600160a01b038416602482015260448082018490528251808303909101815260649091019091526020810180516001600160e01b031663a9059cbb60e01b1790526105f99084906106a6565b505050565b600180546001600160a01b038381166001600160a01b0319831681179093556040519116919082907f8be0079c531659141344cd1fd0a4f28419497f9722a3daafe3b4186f6b6457e090600090a35050565b60008261065d8584610778565b1490505b9392505050565b600061067661010083610a88565b9050600061068661010084610a9c565b6000928352602083905260409092208054600190931b9092179091555050565b60006106fb826040518060400160405280602081526020017f5361666545524332303a206c6f772d6c6576656c2063616c6c206661696c6564815250856001600160a01b03166107c59092919063ffffffff16565b8051909150156105f957808060200190518101906107199190610ab0565b6105f95760405162461bcd60e51b815260206004820152602a60248201527f5361666545524332303a204552433230206f7065726174696f6e20646964206e6044820152691bdd081cdd58d8d9595960b21b60648201526084016103bb565b600081815b84518110156107bd576107a98286838151811061079c5761079c610ad2565b60200260200101516107dc565b9150806107b581610ae8565b91505061077d565b509392505050565b60606107d48484600085610808565b949350505050565b60008183106107f8576000828152602084905260409020610661565b5060009182526020526040902090565b6060824710156108695760405162461bcd60e51b815260206004820152602660248201527f416464726573733a20696e73756666696369656e742062616c616e636520666f6044820152651c8818d85b1b60d21b60648201526084016103bb565b6001600160a01b0385163b6108c05760405162461bcd60e51b815260206004820152601d60248201527f416464726573733a2063616c6c20746f206e6f6e2d636f6e747261637400000060448201526064016103bb565b600080866001600160a01b031685876040516108dc9190610b33565b60006040518083038185875af1925050503d8060008114610919576040519150601f19603f3d011682016040523d82523d6000602084013e61091e565b606091505b509150915061092e828286610939565b979650505050505050565b60608315610948575081610661565b8251156109585782518084602001fd5b8160405162461bcd60e51b81526004016103bb9190610b4f565b80356001600160a01b038116811461098957600080fd5b919050565b6000806000806000608086880312156109a657600080fd5b853594506109b660208701610972565b935060408601359250606086013567ffffffffffffffff808211156109da57600080fd5b818801915088601f8301126109ee57600080fd5b8135818111156109fd57600080fd5b8960208260051b8501011115610a1257600080fd5b9699959850939650602001949392505050565b600060208284031215610a3757600080fd5b5035919050565b600060208284031215610a5057600080fd5b61066182610972565b600060208284031215610a6b57600080fd5b5051919050565b634e487b7160e01b600052601260045260246000fd5b600082610a9757610a97610a72565b500490565b600082610aab57610aab610a72565b500690565b600060208284031215610ac257600080fd5b8151801515811461066157600080fd5b634e487b7160e01b600052603260045260246000fd5b600060018201610b0857634e487b7160e01b600052601160045260246000fd5b5060010190565b60005b83811015610b2a578181015183820152602001610b12565b50506000910152565b60008251610b45818460208701610b0f565b9190910192915050565b6020815260008251806020840152610b6e816040850160208701610b0f565b601f01601f1916919091016040019291505056fea26469706673582212206f20eeff4d6366bd7e69d81bc81fd265077cfc14b7a207f885e18eb27313772c64736f6c63430008110033","linkReferences":{}},"methodIdentifiers":{"claim(uint256,address,uint256,bytes32[])":"2e7ba6ef","endTime()":"3197cbb6","isClaimed(uint256)":"9e34070f","merkleRoot()":"2eb4a7ab","owner()":"8da5cb5b","renounceOwnership()":"715018a6","token()":"fc0c546a","transferOwnership(address)":"f2fde38b","withdraw()":"3ccfd60b"},"id":1}