{"abi":[{"type":"constructor","inputs":[{"name":"name_","type":"string","internalType":"string"},{"name":"symbol_","type":"string","internalType":"string"},{"name":"amountToMint","type":"uint256","internalType":"uint256"}],"stateMutability":"nonpayable"},{"type":"function","name":"allowance","inputs":[{"name":"owner","type":"address","internalType":"address"},{"name":"spender","type":"address","internalType":"address"}],"outputs":[{"name":"","type":"uint256","internalType":"uint256"}],"stateMutability":"view"},{"type":"function","name":"approve","inputs":[{"name":"spender","type":"address","internalType":"address"},{"name":"amount","type":"uint256","internalType":"uint256"}],"outputs":[{"name":"","type":"bool","internalType":"bool"}],"stateMutability":"nonpayable"},{"type":"function","name":"balanceOf","inputs":[{"name":"account","type":"address","internalType":"address"}],"outputs":[{"name":"","type":"uint256","internalType":"uint256"}],"stateMutability":"view"},{"type":"function","name":"decimals","inputs":[],"outputs":[{"name":"","type":"uint8","internalType":"uint8"}],"stateMutability":"view"},{"type":"function","name":"decreaseAllowance","inputs":[{"name":"spender","type":"address","internalType":"address"},{"name":"subtractedValue","type":"uint256","internalType":"uint256"}],"outputs":[{"name":"","type":"bool","internalType":"bool"}],"stateMutability":"nonpayable"},{"type":"function","name":"increaseAllowance","inputs":[{"name":"spender","type":"address","internalType":"address"},{"name":"addedValue","type":"uint256","internalType":"uint256"}],"outputs":[{"name":"","type":"bool","internalType":"bool"}],"stateMutability":"nonpayable"},{"type":"function","name":"name","inputs":[],"outputs":[{"name":"","type":"string","internalType":"string"}],"stateMutability":"view"},{"type":"function","name":"setBalance","inputs":[{"name":"to","type":"address","internalType":"address"},{"name":"amount","type":"uint256","internalType":"uint256"}],"outputs":[],"stateMutability":"nonpayable"},{"type":"function","name":"symbol","inputs":[],"outputs":[{"name":"","type":"string","internalType":"string"}],"stateMutability":"view"},{"type":"function","name":"totalSupply","inputs":[],"outputs":[{"name":"","type":"uint256","internalType":"uint256"}],"stateMutability":"view"},{"type":"function","name":"transfer","inputs":[{"name":"to","type":"address","internalType":"address"},{"name":"amount","type":"uint256","internalType":"uint256"}],"outputs":[{"name":"","type":"bool","internalType":"bool"}],"stateMutability":"nonpayable"},{"type":"function","name":"transferFrom","inputs":[{"name":"from","type":"address","internalType":"address"},{"name":"to","type":"address","internalType":"address"},{"name":"amount","type":"uint256","internalType":"uint256"}],"outputs":[{"name":"","type":"bool","internalType":"bool"}],"stateMutability":"nonpayable"},{"type":"event","name":"Approval","inputs":[{"name":"owner","type":"address","indexed":true,"internalType":"address"},{"name":"spender","type":"address","indexed":true,"internalType":"address"},{"name":"value","type":"uint256","indexed":false,"internalType":"uint256"}],"anonymous":false},{"type":"event","name":"Transfer","inputs":[{"name":"from","type":"address","indexed":true,"internalType":"address"},{"name":"to","type":"address","indexed":true,"internalType":"address"},{"name":"value","type":"uint256","indexed":false,"internalType":"uint256"}],"anonymous":false}],"bytecode":{"object":"0x60806040523480156200001157600080fd5b506040516200113b3803806200113b8339810160408190526200003491620003be565b82826003620000448382620004bf565b506004620000538282620004bf565b5050506200006833826200007160201b60201c565b505050620005d3565b6001600160a01b03821660009081526020819052604090205481811015620000af57620000aa83620000a48385620005a1565b620000cf565b505050565b81811115620000aa57620000aa83620000c98484620005a1565b620001a7565b6001600160a01b0382166200012b5760405162461bcd60e51b815260206004820152601f60248201527f45524332303a206d696e7420746f20746865207a65726f20616464726573730060448201526064015b60405180910390fd5b80600260008282546200013f9190620005bd565b90915550506001600160a01b038216600090815260208190526040812080548392906200016e908490620005bd565b90915550506040518181526001600160a01b038316906000906000805160206200111b8339815191529060200160405180910390a35050565b6001600160a01b038216620002095760405162461bcd60e51b815260206004820152602160248201527f45524332303a206275726e2066726f6d20746865207a65726f206164647265736044820152607360f81b606482015260840162000122565b6001600160a01b038216600090815260208190526040902054818110156200027f5760405162461bcd60e51b815260206004820152602260248201527f45524332303a206275726e20616d6f756e7420657863656564732062616c616e604482015261636560f01b606482015260840162000122565b6001600160a01b0383166000908152602081905260408120838303905560028054849290620002b0908490620005a1565b90915550506040518281526000906001600160a01b038516906000805160206200111b8339815191529060200160405180910390a3620000aa836000846001600160e01b038416565b634e487b7160e01b600052604160045260246000fd5b600082601f8301126200032157600080fd5b81516001600160401b03808211156200033e576200033e620002f9565b604051601f8301601f19908116603f01168101908282118183101715620003695762000369620002f9565b816040528381526020925086838588010111156200038657600080fd5b600091505b83821015620003aa57858201830151818301840152908201906200038b565b600093810190920192909252949350505050565b600080600060608486031215620003d457600080fd5b83516001600160401b0380821115620003ec57600080fd5b620003fa878388016200030f565b945060208601519150808211156200041157600080fd5b5062000420868287016200030f565b925050604084015190509250925092565b600181811c908216806200044657607f821691505b6020821081036200046757634e487b7160e01b600052602260045260246000fd5b50919050565b601f821115620000aa57600081815260208120601f850160051c81016020861015620004965750805b601f850160051c820191505b81811015620004b757828155600101620004a2565b505050505050565b81516001600160401b03811115620004db57620004db620002f9565b620004f381620004ec845462000431565b846200046d565b602080601f8311600181146200052b5760008415620005125750858301515b600019600386901b1c1916600185901b178555620004b7565b600085815260208120601f198616915b828110156200055c578886015182559484019460019091019084016200053b565b50858210156200057b5787850151600019600388901b60f8161c191681555b5050505050600190811b01905550565b634e487b7160e01b600052601160045260246000fd5b81810381811115620005b757620005b76200058b565b92915050565b80820180821115620005b757620005b76200058b565b610b3880620005e36000396000f3fe608060405234801561001057600080fd5b50600436106100b45760003560e01c806370a082311161007157806370a082311461014157806395d89b411461016a578063a457c2d714610172578063a9059cbb14610185578063dd62ed3e14610198578063e30443bc146101ab57600080fd5b806306fdde03146100b9578063095ea7b3146100d757806318160ddd146100fa57806323b872dd1461010c578063313ce5671461011f578063395093511461012e575b600080fd5b6100c16101c0565b6040516100ce9190610967565b60405180910390f35b6100ea6100e53660046109d1565b610252565b60405190151581526020016100ce565b6002545b6040519081526020016100ce565b6100ea61011a3660046109fb565b61026c565b604051601281526020016100ce565b6100ea61013c3660046109d1565b610290565b6100fe61014f366004610a37565b6001600160a01b031660009081526020819052604090205490565b6100c16102b2565b6100ea6101803660046109d1565b6102c1565b6100ea6101933660046109d1565b610341565b6100fe6101a6366004610a59565b61034f565b6101be6101b93660046109d1565b61037a565b005b6060600380546101cf90610a8c565b80601f01602080910402602001604051908101604052809291908181526020018280546101fb90610a8c565b80156102485780601f1061021d57610100808354040283529160200191610248565b820191906000526020600020905b81548152906001019060200180831161022b57829003601f168201915b5050505050905090565b6000336102608185856103ce565b60019150505b92915050565b60003361027a8582856104f2565b61028585858561056c565b506001949350505050565b6000336102608185856102a3838361034f565b6102ad9190610adc565b6103ce565b6060600480546101cf90610a8c565b600033816102cf828661034f565b9050838110156103345760405162461bcd60e51b815260206004820152602560248201527f45524332303a2064656372656173656420616c6c6f77616e63652062656c6f77604482015264207a65726f60d81b60648201526084015b60405180910390fd5b61028582868684036103ce565b60003361026081858561056c565b6001600160a01b03918216600090815260016020908152604080832093909416825291909152205490565b6001600160a01b038216600090815260208190526040902054818110156103b3576103ae836103a98385610aef565b61073a565b505050565b818111156103ae576103ae836103c98484610aef565b610819565b6001600160a01b0383166104305760405162461bcd60e51b8152602060048201526024808201527f45524332303a20617070726f76652066726f6d20746865207a65726f206164646044820152637265737360e01b606482015260840161032b565b6001600160a01b0382166104915760405162461bcd60e51b815260206004820152602260248201527f45524332303a20617070726f766520746f20746865207a65726f206164647265604482015261737360f01b606482015260840161032b565b6001600160a01b0383811660008181526001602090815260408083209487168084529482529182902085905590518481527f8c5be1e5ebec7d5bd14f71427d1e84f3dd0314c0f7b2291e5b200ac8c7c3b925910160405180910390a3505050565b60006104fe848461034f565b9050600019811461056657818110156105595760405162461bcd60e51b815260206004820152601d60248201527f45524332303a20696e73756666696369656e7420616c6c6f77616e6365000000604482015260640161032b565b61056684848484036103ce565b50505050565b6001600160a01b0383166105d05760405162461bcd60e51b815260206004820152602560248201527f45524332303a207472616e736665722066726f6d20746865207a65726f206164604482015264647265737360d81b606482015260840161032b565b6001600160a01b0382166106325760405162461bcd60e51b815260206004820152602360248201527f45524332303a207472616e7366657220746f20746865207a65726f206164647260448201526265737360e81b606482015260840161032b565b6001600160a01b038316600090815260208190526040902054818110156106aa5760405162461bcd60e51b815260206004820152602660248201527f45524332303a207472616e7366657220616d6f756e7420657863656564732062604482015265616c616e636560d01b606482015260840161032b565b6001600160a01b038085166000908152602081905260408082208585039055918516815290812080548492906106e1908490610adc565b92505081905550826001600160a01b0316846001600160a01b03167fddf252ad1be2c89b69c2b068fc378daa952ba7f163c4a11628f55a4df523b3ef8460405161072d91815260200190565b60405180910390a3610566565b6001600160a01b0382166107905760405162461bcd60e51b815260206004820152601f60248201527f45524332303a206d696e7420746f20746865207a65726f206164647265737300604482015260640161032b565b80600260008282546107a29190610adc565b90915550506001600160a01b038216600090815260208190526040812080548392906107cf908490610adc565b90915550506040518181526001600160a01b038316906000907fddf252ad1be2c89b69c2b068fc378daa952ba7f163c4a11628f55a4df523b3ef9060200160405180910390a35050565b6001600160a01b0382166108795760405162461bcd60e51b815260206004820152602160248201527f45524332303a206275726e2066726f6d20746865207a65726f206164647265736044820152607360f81b606482015260840161032b565b6001600160a01b038216600090815260208190526040902054818110156108ed5760405162461bcd60e51b815260206004820152602260248201527f45524332303a206275726e20616d6f756e7420657863656564732062616c616e604482015261636560f01b606482015260840161032b565b6001600160a01b038316600090815260208190526040812083830390556002805484929061091c908490610aef565b90915550506040518281526000906001600160a01b038516907fddf252ad1be2c89b69c2b068fc378daa952ba7f163c4a11628f55a4df523b3ef9060200160405180910390a3505050565b600060208083528351808285015260005b8181101561099457858101830151858201604001528201610978565b506000604082860101526040601f19601f8301168501019250505092915050565b80356001600160a01b03811681146109cc57600080fd5b919050565b600080604083850312156109e457600080fd5b6109ed836109b5565b946020939093013593505050565b600080600060608486031215610a1057600080fd5b610a19846109b5565b9250610a27602085016109b5565b9150604084013590509250925092565b600060208284031215610a4957600080fd5b610a52826109b5565b9392505050565b60008060408385031215610a6c57600080fd5b610a75836109b5565b9150610a83602084016109b5565b90509250929050565b600181811c90821680610aa057607f821691505b602082108103610ac057634e487b7160e01b600052602260045260246000fd5b50919050565b634e487b7160e01b600052601160045260246000fd5b8082018082111561026657610266610ac6565b8181038181111561026657610266610ac656fea26469706673582212207647dd869080fe0b280969cdbac1d51fb07b8839b69e05db31667a16aca89a5064736f6c63430008110033ddf252ad1be2c89b69c2b068fc378daa952ba7f163c4a11628f55a4df523b3ef","linkReferences":{}},"methodIdentifiers":{"allowance(address,address)":"dd62ed3e","approve(address,uint256)":"095ea7b3","balanceOf(address)":"70a08231","decimals()":"313ce567","decreaseAllowance(address,uint256)":"a457c2d7","increaseAllowance(address,uint256)":"39509351","name()":"06fdde03","setBalance(address,uint256)":"e30443bc","symbol()":"95d89b41","totalSupply()":"18160ddd","transfer(address,uint256)":"a9059cbb","transferFrom(address,address,uint256)":"23b872dd"},"id":3}