{"abi":[{"type":"constructor","inputs":[{"name":"token_","type":"address","internalType":"address"},{"name":"merkleRoot_","type":"bytes32","internalType":"bytes32"}],"stateMutability":"nonpayable"},{"type":"function","name":"claim","inputs":[{"name":"index","type":"uint256","internalType":"uint256"},{"name":"account","type":"address","internalType":"address"},{"name":"amount","type":"uint256","internalType":"uint256"},{"name":"merkleProof","type":"bytes32[]","internalType":"bytes32[]"}],"outputs":[],"stateMutability":"nonpayable"},{"type":"function","name":"isClaimed","inputs":[{"name":"index","type":"uint256","internalType":"uint256"}],"outputs":[{"name":"","type":"bool","internalType":"bool"}],"stateMutability":"view"},{"type":"function","name":"merkleRoot","inputs":[],"outputs":[{"name":"","type":"bytes32","internalType":"bytes32"}],"stateMutability":"view"},{"type":"function","name":"token","inputs":[],"outputs":[{"name":"","type":"address","internalType":"address"}],"stateMutability":"view"},{"type":"event","name":"Claimed","inputs":[{"name":"index","type":"uint256","indexed":false,"internalType":"uint256"},{"name":"account","type":"address","indexed":false,"internalType":"address"},{"name":"amount","type":"uint256","indexed":false,"internalType":"uint256"}],"anonymous":false},{"type":"error","name":"AlreadyClaimed","inputs":[]},{"type":"error","name":"InvalidProof","inputs":[]}],"bytecode":{"object":"0x60c060405234801561001057600080fd5b506040516108f23803806108f283398101604081905261002f91610045565b6001600160a01b0390911660805260a05261007f565b6000806040838503121561005857600080fd5b82516001600160a01b038116811461006f57600080fd5b6020939093015192949293505050565b60805160a0516108426100b060003960008181606b01526101a901526000818160c8015261020701526108426000f3fe608060405234801561001057600080fd5b506004361061004c5760003560e01c80632e7ba6ef146100515780632eb4a7ab146100665780639e34070f146100a0578063fc0c546a146100c3575b600080fd5b61006461005f36600461063e565b610102565b005b61008d7f000000000000000000000000000000000000000000000000000000000000000081565b6040519081526020015b60405180910390f35b6100b36100ae3660046106e3565b61027f565b6040519015158152602001610097565b6100ea7f000000000000000000000000000000000000000000000000000000000000000081565b6040516001600160a01b039091168152602001610097565b61010b8561027f565b1561012957604051630c8d9eab60e31b815260040160405180910390fd5b60408051602081018790526bffffffffffffffffffffffff19606087901b1691810191909152605481018490526000906074016040516020818303038152906040528051906020012090506101d48383808060200260200160405190810160405280939291908181526020018383602002808284376000920191909152507f000000000000000000000000000000000000000000000000000000000000000092508591506102c09050565b6101f1576040516309bde33960e01b815260040160405180910390fd5b6101fa866102d8565b61022e6001600160a01b037f0000000000000000000000000000000000000000000000000000000000000000168686610316565b604080518781526001600160a01b03871660208201529081018590527f4ec90e965519d92681267467f775ada5bd214aa92c0dc93d90a5e880ce9ed0269060600160405180910390a1505050505050565b60008061028e61010084610712565b9050600061029e61010085610726565b60009283526020839052604090922054600190921b9182169091149392505050565b6000826102cd858461036d565b1490505b9392505050565b60006102e661010083610712565b905060006102f661010084610726565b6000928352602083905260409092208054600190931b9092179091555050565b604080516001600160a01b038416602482015260448082018490528251808303909101815260649091019091526020810180516001600160e01b031663a9059cbb60e01b1790526103689084906103ba565b505050565b600081815b84518110156103b25761039e828683815181106103915761039161073a565b6020026020010151610491565b9150806103aa81610750565b915050610372565b509392505050565b600061040f826040518060400160405280602081526020017f5361666545524332303a206c6f772d6c6576656c2063616c6c206661696c6564815250856001600160a01b03166104bd9092919063ffffffff16565b805190915015610368578080602001905181019061042d9190610777565b6103685760405162461bcd60e51b815260206004820152602a60248201527f5361666545524332303a204552433230206f7065726174696f6e20646964206e6044820152691bdd081cdd58d8d9595960b21b60648201526084015b60405180910390fd5b60008183106104ad5760008281526020849052604090206102d1565b5060009182526020526040902090565b60606104cc84846000856104d4565b949350505050565b6060824710156105355760405162461bcd60e51b815260206004820152602660248201527f416464726573733a20696e73756666696369656e742062616c616e636520666f6044820152651c8818d85b1b60d21b6064820152608401610488565b6001600160a01b0385163b61058c5760405162461bcd60e51b815260206004820152601d60248201527f416464726573733a2063616c6c20746f206e6f6e2d636f6e74726163740000006044820152606401610488565b600080866001600160a01b031685876040516105a891906107bd565b60006040518083038185875af1925050503d80600081146105e5576040519150601f19603f3d011682016040523d82523d6000602084013e6105ea565b606091505b50915091506105fa828286610605565b979650505050505050565b606083156106145750816102d1565b8251156106245782518084602001fd5b8160405162461bcd60e51b815260040161048891906107d9565b60008060008060006080868803121561065657600080fd5b8535945060208601356001600160a01b038116811461067457600080fd5b935060408601359250606086013567ffffffffffffffff8082111561069857600080fd5b818801915088601f8301126106ac57600080fd5b8135818111156106bb57600080fd5b8960208260051b85010111156106d057600080fd5b9699959850939650602001949392505050565b6000602082840312156106f557600080fd5b5035919050565b634e487b7160e01b600052601260045260246000fd5b600082610721576107216106fc565b500490565b600082610735576107356106fc565b500690565b634e487b7160e01b600052603260045260246000fd5b60006001820161077057634e487b7160e01b600052601160045260246000fd5b5060010190565b60006020828403121561078957600080fd5b815180151581146102d157600080fd5b60005b838110156107b457818101518382015260200161079c565b50506000910152565b600082516107cf818460208701610799565b9190910192915050565b60208152600082518060208401526107f8816040850160208701610799565b601f01601f1916919091016040019291505056fea2646970667358221220a4b1f069573969ded47133d946011d6a4ec91ee1c2cd25bc446b13bc789e781b64736f6c63430008110033","linkReferences":{}},"methodIdentifiers":{"claim(uint256,address,uint256,bytes32[])":"2e7ba6ef","isClaimed(uint256)":"9e34070f","merkleRoot()":"2eb4a7ab","token()":"fc0c546a"},"id":0}